:020000040007F3
:1090000018450020B1950700B9950700BB950700EA
:10901000BD950700BF950700C1950700000000003F
:10902000000000000000000000000000C3950700E1
:10903000C595070000000000C7950700C995070007
:10904000CB950700CB950700CB950700CB95070084
:10905000A5990700CB950700CB950700CB95070096
:10906000CB950700CB950700CB950700CB95070064
:10907000CB950700CB950700CB950700CB95070054
:10908000499C070081990700CB950700CB95070005
:10909000B1990700CB950700B5990700CB9507005C
:1090A000CB950700CB950700CB950700CB95070024
:1090B000CB950700CB9507000000000000000000E2
:1090C000CB950700CB950700CB950700CB95070004
:1090D000CB950700CB950700CB950700000000005B
:1090E0000000000000000000000000000000000080
:1090F0000000000000000000000000000000000070
:10910000000000000000000000000000000000005F
:10911000000000000000000000000000000000004F
:10940000DFF80CD000F018F900480047F1BF070062
:1094100018450020401E00BF00BF00BF00BF00BFB6
:1094200000BF00BF00BF00BF00BF00BF00BF00BF44
:1094300000BF00BF00BF00BF00BF00BF00BF00BF34
:1094400000BF00BF00BF00BF00BF00BF00BF00BF24
:1094500000BF00BF00BF00BF00BF00BF00BF00BF14
:1094600000BF00BF00BF00BF00BF00BF00BF00BF04
:1094700000BF00BF00BF00BF00BF00BF00BF00BFF4
:1094800000BF00BF00BFC5D170470000401E00BF35
:1094900000BF00BF00BF00BF00BF00BF00BF00BFD4
:1094A00000BF00BF00BF00BF00BF00BF00BF00BFC4
:1094B00000BF00BF00BF00BF00BF00BF00BF00BFB4
:1094C00000BF00BF00BF00BF00BF00BF00BF00BFA4
:1094D00000BF00BF00BF00BF00BF00BF00BF00BF94
:1094E00000BF00BF00BF00BF00BF00BF00BF00BF84
:1094F00000BF00BF00BF00BF00BF00BF00BFC5D19D
:1095000070470000401E00BF00BF00BF00BF00BF8B
:1095100000BF00BF00BF00BF00BF00BF00BF00BF53
:1095200000BF00BF00BF00BF00BF00BF00BF00BF43
:1095300000BF00BF00BF00BF00BF00BF00BF00BF33
:1095400000BF00BF00BF00BF00BF00BF00BF00BF23
:1095500000BF00BF00BF00BF00BF00BF00BF00BF13
:1095600000BF00BF00BF00BF00BF00BF00BF00BF03
:1095700000BF00BF00BFC5D170470000056885F37C
:1095800008884068FF2464B2EFF30585002D01D1FF
:10959000A64600472546064621273FBAF0B40024D8
:1095A000002500260027F0B4F92040B20047000053
:1095B0000648804706480047FEE7FEE7FEE7FEE76D
:1095C000FEE7FEE7FEE7FEE7FEE7FEE7D9990700C4
:1095D0000194070040EA01039B0703D009E008C992
:1095E000121F08C0042AFAD203E011F8013B00F868
:1095F000013B521EF9D27047D2B201E000F8012BB4
:10960000491EFBD270470022F6E710B513460A4602
:1096100004461946FFF7F0FF204610BD30B504465A
:109620000020034600E05B1C934203D2E05CCD5C6B
:10963000401BF8D030BD0000064C074D06E0E06846
:1096400040F0010394E8070098471034AC42F6D389
:10965000FFF7DAFE08D7070028D7070000F01F023F
:10966000012191404009800000F1E020C0F8801203
:10967000704700F01F02012191404009800000F175
:10968000E020C0F80011704700F01F020121914056
:109690004009800000F1E020C0F80012704749073F
:1096A000090E002806DA00F00F0000F1E02080F833
:1096B000141D704700F1E02080F80014704700008E
:1096C000BFF34F8F05480168054A01F4E06111437B
:1096D0000160BFF34F8F00BFFDE700000CED00E01D
:1096E0000400FA0510B51A2003F028F800220D49ED
:1096F0000D4802F061FE162003F020F8132003F05D
:109700000EF8AD2000F0ECF88A2000F0E9F8AE2069
:1097100000F0E6F8162003F029F8BDE810400248F2
:1097200002F0F6BE182700207CD6070010B51A20DC
:1097300003F01CF800220D490D4802F03DFE1620F2
:1097400002F0FCFF132002F0EAFFAD2000F0C8F8A1
:109750008B2000F0C5F8AF2000F0C2F8162003F00F
:1097600005F8BDE81040024802F0D2BE18270020DC
:109770007CD6070010B5162002F0CAFF162002F0B2
:10978000EDFF4748FF21C17081700A2002F0BEFD45
:109790001A2002F0BDFF1A2002F0E0FF322002F092
:1097A000B5FD142002F0B4FF142002F0BFFF3220F8
:1097B00002F0ACFD142002F0D1FF642002F0A6FDFF
:1097C0001A2002F0A5FF1A2002F0C8FF322002F092
:1097D0009DFD132002F09CFF162002F099FF162039
:1097E00002F0BCFF00222E492E4802F0E5FD1620B3
:1097F00002F09CFF132002F08BFFAE2000F070F807
:10980000A82000F06DF83F2000F06AF8D52000F0A5
:1098100067F8512000F064F8C02000F061F8D32010
:1098200000F05EF8602000F05BF8DC2000F058F8F3
:10983000002000F055F8202000F052F8812000F0C0
:109840004FF8902000F04CF8A02000F049F8A42038
:1098500000F046F8A62000F043F8AD2000F040F8F4
:109860008A2000F03DF8D92000F03AF8222000F0DC
:1098700037F8DB2000F034F8352000F031F8002014
:1098800002F07CFFAF2000F02BF8002002F076FF02
:10989000162002F063FF034802F03AFE002010BDDC
:1098A000182700207CD6070002F08CBF38B50C4684
:1098B000054640290FD8132002F050FF0120FFF782
:1098C000A9FD00200346009022462946034802F0E5
:1098D00011FE002800D0062038BD00007CD607000D
:1098E0003EB50446132002F021FF8DF8044001200C
:1098F000FFF790FD01200246009002AB01A9054848
:1099000002F0F8FD08B106203EBD132002F026FF4C
:1099100000203EBD7CD607002DE9F047C2F3C4020B
:10992000DDE9084530B10E0E7719402F02D8A7188F
:10993000102F02D90120BDE8F08703440022DFF890
:109940003CA01FFA81F914E00AEB84110AE000BF81
:1099500000EB020C05EB000813F80CC0401C01F8EA
:1099600008C0C0B28642F3D809EB0200641C82B280
:10997000E4B2A7424FF00000E6D8DCE7682D0020F3
:1099800007480021C0F84011C0F84411C0F8481140
:10999000C0F84C11C0F80011C0F8041103F068BC05
:1099A00000100140014800680047000048270020DF
:1099B00003F0FABB074810B5406830B18047002873
:1099C00007D0BDE8104000F0A5BBBDE8104002F094
:1099D000B9B910BDFC270020F0B54FF08056D6F87D
:1099E00058028B4900F04F0008608A480023021D8E
:1099F0000178101D0124062907D115782D0704D1FF
:109A00000578C5F30315032D02D0062904D00FE015
:109A1000824F814D7D670EE015782D0708D10578BE
:109A2000C5F30315032D06D0042D04D0052D02D057
:109A3000062907D00EE0D6F84452794EC5F34235D8
:109A4000356002E015782D0704D10578C5F30315BC
:109A5000032D02D0062906D011E0724D2E6826F0A3
:109A600080762E600EE015782D0708D10578C5F3B5
:109A70000315032D06D0042D04D0052D02D0062990
:109A80000AD011E04FF08045C5F80C31C5F810310F
:109A9000634D2D1F2B6002E015782D0704D105784A
:109AA000C5F30315032D02D0062905D00CE05C4A4E
:109AB0000321643211600AE015782D0704D105787E
:109AC000C5F30315032D02D006290DD06AE0564ACE
:109AD00005211160544978310C60534908310B60FD
:109AE0003F21121D116002E0117809075AD1007858
:109AF000C0F30310052855D14C4800684C49086054
:109B00004A48001D0068091D086048480830006880
:109B1000091D086045480C300068091D086043486D
:109B200010300068091D0860404814300068091DA5
:109B300008603E48183000683D49203108603B48C5
:109B40001C300068091D0860384820300068091D75
:109B50000860364824300068091D08603348283002
:109B60000068091D086031482C300068091D086034
:109B70002E48303000682E49403108602B48343080
:109B80000068091D0860294838300068091D086010
:109B900026483C300068091D0860244840300068B1
:109BA000091D08601F487438016841F470010160A4
:109BB000BFF34F8FBFF36F8F4FF01021D1F80C021E
:109BC000C00720D01B4A14601B480468002CFCD03E
:109BD000D1F80C4224F00104C1F80C4201680029BC
:109BE000FCD0136001680029FCD0BFF34F8F0D48F3
:109BF000F0380168114A01F4E06111430160BFF3DC
:109C00004F8F00BFFDE70F490D480860F0BD000011
:109C1000E40E0040E00F00F00DF0ADBA00C00740C8
:109C20003C050040FCED00E010560040040400102C
:109C300020C5004004E5014000E401400400FA05AD
:109C40000090D003282700200648D0F8040310F025
:109C5000010F4FF0000004D003490860034840683A
:109C6000004770470000014000010140D02700205C
:109C700002E008C8121F08C1002AFAD170477047D5
:109C8000002001E001C1121F002AFBD170472DE91D
:109C9000FC5F0025168807461580406B14468946F0
:109CA000A8464FF00C0A11234FF0020B98B101782F
:109CB0004846032E48D380F800B02288521C92B246
:109CC000228083542288521C92B2228009F802100A
:109CD0002088401C20803A6BDAB12088494600F188
:109CE0001205B54230D80B5420881023401C80B296
:109CF00020800B542088401C20800F202388155C76
:109D0000401ECD54238840B25B1C23800028F5DA26
:109D1000454697F82E0030B133462246494602F0B8
:109D200079F8050011D197F82D0030B1324621465F
:109D3000484600F093FC050007D1B87820B320888E
:109D4000C846001DB04202D95046BDE8FC9F684697
:109D500079DF0028F9D12188032008F80100208844
:109D60001921401C80B2208008F800102088401C77
:109D700080B2208000EB0801BDF8000003F0E1FA9A
:109D80000146208808442080F878B8B1228897F9E5
:109D90000310D31C4846B342D6D800F802B022883C
:109DA0000123521C92B2228083542288521C92B208
:109DB000228009F802102088401C20807868B8B101
:109DC000218890F90020CB1C4846B342BCD800F84B
:109DD00001B021880A23491C89B22180435421887B
:109DE000491C89B2218009F801202088401C20806C
:109DF000388950B1CDE900464B460622022107F1D1
:109E0000080003F010FB05009FD1388A50B1CDE95E
:109E100000464B460722032107F1100003F003FB25
:109E2000050092D1388B50B1CDE900464B46152242
:109E3000142107F1180003F0F6FA050085D1386AFD
:109E400030B133462246494601F0AAF80500DBD17D
:109E5000786A30B133462246494602F035F90500AA
:109E6000D2D197F82C0038B13346224649463846BD
:109E700003F018F80500C7D1387838B133462246C8
:109E80004946384602F0F4F90500BDD128465CE7A2
:109E900070B504463248A6B0382180798DF892001A
:109EA00041F23050ADF8900008A8FFF7ACFB02205B
:109EB0008DF820000120ADF82800002624A88DF898
:109EC00022600B908DF8234014216846FFF79BFB1E
:109ED0000024382116A8FFF796FB05960696062162
:109EE0006D4601A8079600F06BFD00F029FF20B138
:109EF0009DF80900401E8DF8090000F073FD8DF8F3
:109F0000000000F06FFD000A8DF8010006208DF8BA
:109F100002000A208DF80A00F0208DF803608DF809
:109F20000B0000F05FFDADF814000DF1020007908A
:109F30000B20ADF818000021685C491C2044C4B215
:109F40000C29F9DB05A81F908DF80C4016A908A86C
:109F500000F0DCFA002801D000F0DCF826B070BD7B
:109F6000E43200202DE9F043264C8BB0A078002885
:109F700034D118212448FFF746FBA046E078224C54
:109F800000254FF47079012698B304F14807009535
:109F90000195029510226946F81D0395FFF73EFBD7
:109FA000F8B1F81DCDE9080709A8049008A80690A3
:109FB0008DF814608DF81C600420FFF769FF257090
:109FC0000220207204A8E060A4F8109065820E4878
:109FD00073DF08B100F09EF888F802600BB0BDE8AE
:109FE000F0830520FFF754FF2670676025722582F5
:109FF000ECE7FFE70620FFF74BFF25706560257251
:10A00000E2E7000098270020CC3200202DE9FF4134
:10A010000546087A0E4681070AD0032211462846D3
:10A0200000F04CFC002801D000F074F8BDE8FF817E
:10A030003649009001F030FE010011D1334C7168B7
:10A04000203C009A206AFFF7C5FA009801F0F0FD65
:10A05000010005D169462D4801F0FAFD010003D049
:10A06000284601F091F9E1E704200190009880086A
:10A070000290206A039001A801F050F9070027D050
:10A08000092F2CD0206A01F09DFD010002D0284646
:10A0900001F07AF93946284601F076F9216900295C
:10A0A000C4D0E06964225043A26AB0FBF2F0A26916
:10A0B0009042BBD00522B0FBF2F302FB1302A06179
:10A0C000002AB3D1642800D96420C0B28847ADE724
:10A0D000307AE1690844E061206A6062DEE7307A44
:10A0E000E1690144E16160780028D7D06089401EB1
:10A0F0000004000C6081D1D1284600F0A7FB08B114
:10A1000000F008F820896081C8E70000B827002027
:10A11000FFF7D6FA0EB500210091CDE901106A468D
:10A1200044F20100FFF7F4FF0EBD000038B50C4605
:10A13000064BE268097853F82250626800920246A2
:10A1400004F10C006369A84738BD00009832002074
:10A1500070B50F4B054605201C785E78A64216D0D8
:10A160001C7818789E88B04201DA401C00E000207C
:10A1700018705E88D86804FB06002860986800EBB9
:10A18000C4039B880B8050F834001060002070BD21
:10A19000582700202DE9F84F254C814692466088CB
:10A1A0000E46814241D800274FF6FF788DF80070A7
:10A1B000684600F03FF922786078A188884201DA89
:10A1C000401C00E00020C0B2904204D19DF8000085
:10A1D00000F054F927E065786078884201DA401C85
:10A1E00000E0002060709DF8000000F047F9454550
:10A1F00019D0A068B9F1000F40F835A00DD066B1B4
:10A200006188E068324605FB01004946FFF7E2F944
:10A21000A06800EBC500868002E000EBC5008780E7
:10A220000020BDE8F88F0420FBE70920F9E70000D3
:10A23000582700200EB504E0029ABDF804100098DB
:10A24000904702AA01A96846FFF782FF0028F3D0D1
:10A250000EBD000030B5CB0008339DB293074FF020
:10A26000000401D0072030BD044B9A602A44DA6014
:10A270005C701C7058809980002030BD58270020E9
:10A28000074B9B6823B12AB120B10068037C1BB146
:10A2900008207047072070474174426100207047D2
:10A2A0006827002010B50446082902D00020FFF7D7
:10A2B00031FFD4E90010BDE8104008471CB5044A3E
:10A2C000CDE9000108216846FFF764FF1CBD0000CE
:10A2D000A5A207002DE9F0478046994614460F468F
:10A2E00090074FF0000634D11C4D8CB302F028FDCE
:10A2F0000320C5F81490287004F11800002107EB22
:10A300004703AC6004EBC102491C1670567097708D
:10A31000506000EBC3000329F4DBEE606E70AE709A
:10A320001420FFF79BF906211420FFF7B8F9142039
:10A33000FFF79FF90A49C1F8008006211120FFF7B5
:10A34000AEF90748001F006828610020BDE8F087CB
:10A3500001E00720FAE7AE60FBE700006827002075
:10A36000081501402DE9F843DFF870900D461746B7
:10A37000D9F80810044651B34CB3052D02D207207A
:10A38000BDE8F883606910B3607C012821D0002605
:10A3900003F016F8D9F80810804601EBC8006946AA
:10A3A00003F02DF8B8B1012100F8041B0C4910C0CE
:10A3B000096880E8E200D9F8081001EBC8009DF8B0
:10A3C000001041701420FFF75FF90020D8E7082043
:10A3D000D6E72E46DCE70420D2E7000068270020FD
:10A3E00004150140F8B5124E0446B168E1B1DCB184
:10A3F0006069C8B10027277402F0E2FF0546B06823
:10A40000694600EBC50002F0FAFF78B10221017045
:10A410004460B0689DF8001000EBC5004170142046
:10A42000FFF732F93846F8BD0820F8BD0420F8BD22
:10A430006827002030B5EFF3108172B60D4A94689A
:10A44000012324B10370002900D162B630BD9360AE
:10A450004FF0E023D3F88051074C25401560C3F836
:10A460008041D3F8844154605A17C3F884210022F4
:10A470000270E8E708350020FC06FFBC0B498A683B
:10A48000002A11D000280FD1EFF3108072B60B68AC
:10A490004FF0E022C2F800314B68C2F804310022CC
:10A4A0008A60002800D162B670470000083500209D
:10A4B0000F494A78904206D0012805D10A78032A2C
:10A4C00002D0521C0A70704700230B70094A487072
:10A4D00028B1012802D0022802D106E001235370DE
:10A4E00049680029EFD0C0B208470223F7E700000F
:10A4F00004270020382D002003480068400D10F08C
:10A50000010000D00120704710050050F0B50C4646
:10A5100093B01F210726ADF80010ADF804100027F6
:10A5200050B1C17849070DD56A4602A9FFF7AFFBC4
:10A53000002808D102AD02E00025ADF800706CB132
:10A54000E07810B1304613B0F0BD01AA0AA9204648
:10A55000FFF79DFB0028F6D10AAA02E00022ADF821
:10A560000470BDF80400C3B2BDF80000C1B22846B3
:10A5700072DFE8E770B5054601461C220F48FFF779
:10A5800029F80F4C00262670286830B101686160F8
:10A590004068A060201D7ADF02E00948001D7BDFD3
:10A5A00000280AD14FF6FF7060806670BDE87040E9
:10A5B000044A00210448FFF763BE70BD88310020C3
:10A5C0002C27002061D3070084D6070070B51E4CED
:10A5D000068800251B49E289102E15D01B4B112E31
:10A5E0001CD0122E29D0502E17D130F8061F9142C0
:10A5F00013D14189022910D1007B10F0010F11D035
:10A60000BDE8704000F012BD83884B808369CB6049
:10A61000C06908614D70002AF2D070BD4FF6FF701E
:10A6200048804D701868FFF7DDFE0028F5D0A1695D
:10A630000029F2D0BDE8704008478268CA60C0684F
:10A640000861DDE72C2700208831002084D6070030
:10A6500001480068FFF7C6BE84D607007CB50546F2
:10A6600008880C460930904201D90C207CBD684610
:10A6700071DF0028FAD121880820685420881B2126
:10A68000401C80B2208029542088401C80B2208049
:10A690002844DDF801100160BDF805108180208894
:10A6A000801D80B220809DF8001001B10121295445
:10A6B0002088401C208000207CBD0000F0B585B0C3
:10A6C0000A4605002FD02888A0F57F41FF392CD0FD
:10A6D0001748007848B3164C1020641C01272070DE
:10A6E00007206070A7700320ADF810000026E11C61
:10A6F000104602F02BFEBDF8101000960844ADF88D
:10A700001000019602960396288AADF8000004A86E
:10A71000CDE902048DF80270ADF80460288869461E
:10A72000A6DF05B0F0BD0E20FBE70820F9E700002A
:10A730004027002030B585B00D46040039D0BDB3A8
:10A740006868A8B31C4B4FF6FF7020800FCB0DF14B
:10A75000040C8CE80F0041F23050ADF8000001A865
:10A76000811E63DF002821D1221D69460120A0DF60
:10A7700000281BD19DF80200A071204600F01EFFAA
:10A78000002813D1204600F07BFD00280ED1294679
:10A79000204600F083FF002808D16868A062A868FE
:10A7A00000B1E062054901200870002005B030BD0D
:10A7B000FFE70E20FAE7000088D6070040270020B8
:10A7C0003EB500283CD000293AD0826A002A37D012
:10A7D0000A88102A23D0112A33D0502A21D0512A96
:10A7E0002ED104460A4611F8060F022828D14888BF
:10A7F000238A984224D1907B042821D006281FD098
:10A8000005281DD02046891C02F0D6F8002817D054
:10A81000E16A002914D003B0BDE8304008478988B8
:10A8200011E0CA8803899A420AD108228DF80020D3
:10A830000A7C12318DF808200191826A694690479E
:10A840003EBD4FF6FF7101803EBD0000F0B585B002
:10A850000A4605002BD02888A0F57F41FF3928D073
:10A860001548007828B3144C1120641C012720706F
:10A870000026ADF81070611C104602F067FDBDF8AF
:10A88000101000960844ADF8100001960296039649
:10A89000288AADF8000004A8CDE902048DF8027002
:10A8A000ADF8046028886946A6DF05B0F0BD0E202B
:10A8B000FBE70820F9E700004027002030B585B00D
:10A8C00028B30388A3F57F44FF3C22D0124B1B78AA
:10A8D000FBB1114B10255B1C00241D7059709A7040
:10A8E00001250321ADF81010009401940294039403
:10A8F000018AADF8001004A9CDE902138DF80250C9
:10A90000ADF8044000886946A6DF05B030BD0E20D2
:10A91000FBE70820F9E700004027002010B50446B7
:10A92000FFF754FE21460448FFF74AFF2046BDE8E2
:10A93000104001F085BF0000E432002030B51C4912
:10A940008BB00A1D0DF1140C3CCA8CE83C00096860
:10A95000099120B105A818DF08B1FFF7DBFB4FF420
:10A96000F22013DF08B1FFF7D5FB124B4822124942
:10A9700009A802F075FB08B1FFF7CCFB01216A467C
:10A98000084602F047FB08B1FFF7C4FB01208DF831
:10A990000C00684602F034FB08B1FFF7BBFB074828
:10A9A00002F078FB002801D0FFF7B4FB0BB030BDFC
:10A9B0001CD507004DD00700402B00209DD107007B
:10A9C0001CB5044606290BD3684671DF0021684692
:10A9D000C1F10502024452786254491C0629F7DB92
:10A9E0001CBD00000148408870470000002700207F
:10A9F00002494FF40F704880002070470027002064
:10AA000038B50068401C18D00024684600F0A4F94E
:10AA10000098017801290FD1418851B181684FF424
:10AA200040500022806800F02FFB00994988814245
:10AA300001D1012400E00024204638BD70B511DFAB
:10AA400008B1FFF767FB4FF0E0210020D1F800319B
:10AA50005FF0010404FA00F21A420AD042B202F096
:10AA60001F0504FA05F15209920002F1E022C2F832
:10AA70008011401C2028EDD34FF44054A06813DF10
:10AA800008B1FFF747FBA068BDE8704000F062B96D
:10AA900008B5684600F060F900980178A52904D04F
:10AAA0000079AA2801D0002008BD012008BD10B5FA
:10AAB00000F080FE18B900F068FB002813D0642075
:10AAC00001F024FC00F039FE08B1FFF723FB00F091
:10AAD00071FE08B1FFF71EFB00F03CFB041E01D025
:10AAE000FFF718FB204610BD00B587B014220849B7
:10AAF00001A8FEF76FFD05980DF1040C00909CE88D
:10AB00000F0000F013F802F0F5FC07B0002000BDC4
:10AB1000A4D6070010B500F083FC002805D100F092
:10AB20008FFF044602F0E6FC204610BD2DE9F843F5
:10AB300004460E4617461D466846DDF8208000F0A4
:10AB40000BF914F0FF024FEA14412F4C2F484FF03D
:10AB500001034FF0FF0C10D0012A14D0032A23D098
:10AB60000021022A2DD0052A3FD0042A44D0062AEB
:10AB700001D104202070BDE8F88341808560037016
:10AB800080F804C00BE04180F11929448160A521BF
:10AB9000017080F804C0C0F81880C6600EE0237011
:10ABA0001A4800F09BF8E6E700990A7802704A8894
:10ABB000428089688160AA210171C660C0E904757C
:10ABC000EDE7009A1578A52D0AD0057055884580C7
:10ABD0009268826080F804C0C16001614161DEE773
:10ABE0004180816080F800C0F4E700F0B9FE08B150
:10ABF000FFF790FA0320BDE74180816080F800C034
:10AC0000009909790171CBE788270020A432002040
:10AC10000EB5084A07CA8DE8070001F0F7FF0028C3
:10AC200006D105494FF4FE204860684602F00EF850
:10AC30000EBD000098D607008C27002070B5134881
:10AC4000006802F0ADFA047A02F0AAFA00896FF007
:10AC5000FF056FEA1020C0B2844201D1042C03D951
:10AC600002F09EFA85600EE0032C04D902F098FAF7
:10AC70008560012070BD641CE4B202F091FAE143EA
:10AC800044EA01218160002070BD00000004004002
:10AC900010B54FF08050006E411D414301EB810122
:10ACA00080EA011402F07CFAC46010BD38B5044695
:10ACB000684600F051F80098017821704188618061
:10ACC0008168A16001792171C168E1600169216138
:10ACD000416961618069A06138BD000010B504461A
:10ACE0001C21094801F088FF08B1FFF713FA00237F
:10ACF0001C222146044801F0BDFF002803D0BDE816
:10AD00001040FFF707BA10BD8C27002070B505462C
:10AD100002F046FA0068040C02F042FA008880B2A1
:10AD2000A04205D1A4F50850533803D0401E03D0EB
:10AD3000002070BD012000E000202870012070BDBF
:10AD400008B56846FFF7E2FF10B19DF8000008BDA6
:10AD5000012008BDFEF712BC0149016070470000E8
:10AD600000F007003EB5164C201D07C88DE807000F
:10AD70001449684601F06AFC08B1FFF7CBF91248A4
:10AD800001F01EFC08B1FFF7C5F901F03BFC02F031
:10AD900007FA4FF0061141600C4A01210848FFF7FD
:10ADA0006FFA08B1FFF7B6F900224FF4C0312068FE
:10ADB000FFF7D8FA002801D0FFF7ACF93EBD00003C
:10ADC00030D5070019D507000027002059BB070020
:10ADD00010B50F4C022805D001F02EFA2068FFF7BD
:10ADE00001FB0DE001F028FA2068FFF7FBFA08B13B
:10ADF000FFF790F900224FF400412068FFF7B2FA04
:10AE0000002803D0BDE81040FFF784B910BD000052
:10AE100058D5070070B5174C0F20217801EB410180
:10AE200004EBC1021449536912F8045F4968012D0B
:10AE30000ED0032D0BD14FF08050006980B2B3FBD0
:10AE4000F0F0084428DF002801D10121A17070BD75
:10AE50000803516856690D1A311892681844104455
:10AE6000B5F5805F02D2AA0829DFECE74FF48062D3
:10AE700029DFE8E7A43100205027002000EB400242
:10AE80000548002100EBC200032201718160C0E986
:10AE900004218161C1607047A43100202DE9F04197
:10AEA000134C069E65780A2D1FD027783D44EDB2DD
:10AEB0000A2D01D30A3DEDB205EB450504EBC505AE
:10AEC0002871AA61D1E90001C5E90401C5E902368A
:10AED000A178002021B9FFF79DFF112800D10020A3
:10AEE0006178491C6170BDE8F0810420FBE7000037
:10AEF000A43100202DE9F05F2648C168F1B3DFF8E6
:10AF000098B00E688146DBF800400769C078E11B05
:10AF100021F07F45ED1CB0B9DFF880804FF4803020
:10AF2000C8F84403C8F804031120FEF797FB11206A
:10AF3000FEF79FFB4FF0010AC8F800A02F20FEF794
:10AF4000E1FA89F803A0B54200D23546124BE81960
:10AF50003C3320F07F401860DBF800105A46091B94
:10AF600021F07F41001B20F07F40C91C81420FD996
:10AF7000106818602F20FEF7C5FA00E004E0BDE875
:10AF8000F05F1120FEF780BBBDE8F05F01F0D8BE96
:10AF9000BDE8F09F68270020041501400010014023
:10AFA0002DE9F04117880646B81D14460D46984213
:10AFB00002D90C20BDE8F0813188072206290AD386
:10AFC0004FF4486C4FF6FF73614501D9994202D1A5
:10AFD0007088062801D21046ECE7604501D99842F6
:10AFE000F9D1994203D0984201D08142F3D805208B
:10AFF000E85520881221401C80B2208029542088E6
:10B00000401C80B220804119308802F09AF92188D2
:10B01000084480B220804119708802F092F921889A
:10B02000084420800020C5E7FFF774B8F8B513483E
:10B0300000F0DCFE114D0026114C0C3D30B1616971
:10B04000B9B101208DF80000684611E0287820B1E0
:10B05000616971B18DF80060F6E7687858B1A16850
:10B06000084800220068FFF77DF910B1A16901B11D
:10B0700088472E70F8BD6168F2E70000382700208D
:10B080008831002084D6070010B5044612B110881C
:10B09000002211E04FF6FF70FAE7030A43EA0023AB
:10B0A000A05C5840C0F30313584080EA003080B2DF
:10B0B000C3B280EA4310521C8A42EED310BD000096
:10B0C00010B586B0142101A8FEF79DFA0A480024A5
:10B0D0008DF804408088ADF8060008480DF1040C96
:10B0E000C0680490059800909CE80F00FFF71EFDD3
:10B0F00006B0204610BD0000DC270020AC34002044
:10B10000032161F3070008B50549064B898861F3FF
:10B110001F400ECB0094FFF709FD002008BD000082
:10B12000DC270020B0340020012138B561F307008E
:10B130000649074B898861F31F404FF440518C68E2
:10B140000ECB0094FFF7F2FC002038BDDC27002076
:10B15000B034002000B58BB004A8FFF7A7FD089815
:10B1600000280CD0079860B107990A98084400217C
:10B17000CDE90010089880080290684618DF0BB0EF
:10B1800000BD4FF440508068F1E700B58BB004A8D3
:10B19000FFF78CFD089800280FD0079878B1079921
:10B1A0000A980844032100914FF4F221CDE90110DF
:10B1B000089880080390684618DF0BB000BD4FF474
:10B1C00040508068EEE7000070B515460A46032837
:10B1D0001FD0042824D1134C39B1E088A0F57F4159
:10B1E000FF391DD0132176DF0DE0284600F0EAFC80
:10B1F00008B1FEF78FFF606AA84211D10122032136
:10B200000948FFF75BFB00280AD0BDE87040FEF755
:10B2100081BF0121104601F03DFA02460121EFE70E
:10B2200070BD000098270020E432002000B587B0F0
:10B230001422074901A8FEF7CDF905980DF1040C79
:10B2400000909CE80F00FFF771FC07B000BD000004
:10B25000E8D607001FB503230093CDE9010190084C
:10B260000390684618DF04B010BD1FB5012300939A
:10B27000CDE9010190080390684618DF04B010BDC5
:10B2800030B58FB005461C216846FEF7BCF9002496
:10B290009DF80000019440F018008DF80000039420
:10B2A000049405940694A8798DF8360041F2315043
:10B2B000ADF834000C949DF83000142120F0FF000C
:10B2C0008DF830009DF8310020F00F00401C20F078
:10B2D000F00010308DF831009DF8320020F00600AB
:10B2E000801C20F0080040F011008DF8320007A803
:10B2F000FEF789F90DA807900CA80890ADF8244036
:10B300001720ADF82640ADF828000B94A88805F169
:10B31000100307AA6946A2DF0FB030BD70B5050063
:10B3200004D0287A800703D0102070BD0E2070BD95
:10B33000144C6078032803D0042801D0052801D0DC
:10B34000082070BD6868E1688600A06830448842C3
:10B3500004D94FF0FF30A0600C2070BD00F0E2FA7D
:10B360000028FAD1A9683246A368206901F082FC5E
:10B370000028F2D1A1683144A160E2689142ECD08A
:10B38000092070BDDC27002010B50A4604460321C1
:10B39000104601F07FF9024603212046FFF78EFA9E
:10B3A000002803D0BDE81040FEF7B4BE10BD000079
:10B3B000094810B54078072801D0082010BD07487B
:10B3C0000068FFF70FF808B1FEF7A4FE0448806894
:10B3D000BDE8104000470000DC270020E4D607004D
:10B3E000FC34002010B50D4C6078052813D1D4E949
:10B3F000020188420FD10620607000F093FA002805
:10B4000008D12069E168406800F086F8002801D181
:10B410000721617010BD082010BD0000DC2700204E
:10B42000FEB5174E174C06F11800002507C88DE829
:10B430000700A570A58004F11801684601F006FC1C
:10B4400008B16570FEBD0F494FF440501831806857
:10B4500048600D4A00210A48FEF712FF08B1FEF7C6
:10B4600059FE00224FF416013068FEF77BFF08B149
:10B47000FEF750FE0120A56060700020FEBD0000B8
:10B48000E4D60700DC27002009B9070010B5094CF5
:10B490000820A16801B110BD61780429FBD1A17811
:10B4A000054800F047F810B10021A17010BD05213A
:10B4B000617010BDDC270020BC3400202DE9F04174
:10B4C000134C07466078032805D0042805D00825CA
:10B4D0002846BDE8F08104206070A06808B108200B
:10B4E000F7E700F01FFA0500F3D178688600A0782E
:10B4F0008119402901D90920EBE7064AB9681044AF
:10B500003246FEF767F8A0783044A070E0E700000C
:10B51000DC270020BC34002010B50022FFF7B4FD6A
:10B5200003490988884201D00B2010BD002010BDBE
:10B53000C032002070B500250C290ED343180189B4
:10B54000044600EB4101581A0A38C2B21948022ACF
:10B55000027002D30A318B4201D2092070BD164815
:10B56000FEF738F84FF01020B0F88000A0F57F41CA
:10B57000FF391CD1FFF736FA2188884217D160883D
:10B58000642814D10CE000BF04EB450149899142C5
:10B5900004D09E896D1CB6B2B14206D1002070BDA8
:10B5A00020894FF6FE724FF44053A842ECD80B208E
:10B5B00070BD000094270020C032002030B58FB04D
:10B5C00005461C216846FEF71EF800249DF8000081
:10B5D000019440F004008DF8000003940494059455
:10B5E0000694A8798DF8360041F23250ADF8340057
:10B5F0000C949DF83000142120F0FF008DF83000ED
:10B600009DF8310020F00F00401C20F0F0001030B9
:10B610008DF831009DF8320020F00600801C20F0EB
:10B62000180040F001008DF8320007A8FDF7EBFF8D
:10B630000DA807900CA80890ADF824401420ADF890
:10B640002640ADF828000B94A88805F1080307AA46
:10B650006946A2DF0FB030BD084910B5A1F118004E
:10B66000016102214170C168183001F0C5FA00285B
:10B6700003D0BDE81040FEF74DBD10BDF4270020FB
:10B680000149486170470000DC27002038B50625D5
:10B6900065F307000094FFF749FA38BD70B58EB026
:10B6A0000E4605461C216846FDF7ADFF00249DF8B7
:10B6B0000000019440F002008DF80000039404940F
:10B6C00005940694A8798DF8360041F23450ADF80F
:10B6D00034000C949DF83000142120F00F00401C21
:10B6E00020F0F00010308DF830009DF8310020F08F
:10B6F000FF008DF831009DF8320020F00600801C1C
:10B7000020F0180040F001008DF8320007A8FDF786
:10B710007AFF0DA807900CA808900220ADF824002D
:10B72000ADF82640ADF828000B96A88805F1200357
:10B7300007AA6946A2DF0EB070BD2DE9F04188B0BE
:10B740006846FFF7B3FA039800282BD0069A00F555
:10B7500080504FF48051904227D9A2F58050440880
:10B760001046039A00EB440687184FF440500D46EC
:10B77000806801EB440890420ED204F58050042208
:10B780000146FFF772FD00280CD129460422084625
:10B79000FFF76BFD002805D1BA1B23464146304612
:10B7A00000F038F808B0BDE8F081039A0698FFF77A
:10B7B0005CFDF7E730B58FB002A8FFF777FA059880
:10B7C000002817D0089A00F580504FF4805190421D
:10B7D00016D9A2F58050430810464FF44054059AFC
:10B7E000A468059D024400EB430001EB4301AC4219
:10B7F00002D20E200FB030BD121A00F00BF8F9E79C
:10B800000BAB032083E80700059880080E900BA877
:10B8100018DFEFE72DE9F0411C4617460D460646B6
:10B82000FFF718FD002818D0B5F5805F07D923462B
:10B83000291B301B1A46FFF7EDFF00280DD13A46B1
:10B8400029463046FFF711FD002806D13A46294621
:10B850003046BDE8F041FFF7FDBCBDE8F0810000D7
:10B8600070B542682148D2E90043D2E90212C0E92A
:10B870000212C0E900430078440701D5840705D1CE
:10B880009C0703D18C0701D1940701D0062070BD1D
:10B89000174D0B441A44EA60B1F5C04F06D84FF477
:10B8A00040518968C1F5EA21914201D20C2070BD56
:10B8B0000E4C1049503421600F496160C10701D01E
:10B8C0000E4804E0800701D50D4800E00D48A06057
:10B8D0006878012802D00826304670BD00F022F8B2
:10B8E0000600FAD12168E8688847F5E7AC34002003
:10B8F000DC27002059B607002DB2070029B1070048
:10B9000001B10700C1B0070068B5054E01253570CB
:10B91000052565F307000094FFF708F968BD0000EE
:10B92000DC2700200C4810B5007808B1082010BDB5
:10B930000A4C2068FEF756FD08B1FEF7EBFB00222B
:10B940004FF416012068FEF70DFD041E01D0FEF72E
:10B95000E1FB204610BD0000DC270020E4D60700F4
:10B9600010B50E4C01202070E088A0F57F41FF3912
:10B9700005D0132176DF50B1FEF7CCFB07E0A078AD
:10B9800028B174DF08B1FEF7C5FB0020A070FEF7F8
:10B990005FFE08B1FEF7BEFB002010BD9827002017
:10B9A0000349C8700021034A0846FEF7F3BB0000B4
:10B9B0000C270020B9B907000D4810B5C17809B9A6
:10B9C0000021417000F038FC0A4C2068FEF70AFDA7
:10B9D00008B1FEF79FFB00224FF400412068FEF7FC
:10B9E000C1FC002803D0BDE81040FEF793BB10BD9A
:10B9F0000C27002058D50700014948617047000016
:10BA000098270020064910B508700120487000F002
:10BA100013FC0021BDE81040024A0846FEF7BABBFD
:10BA20000C27002029BA07000148007800F0D0BB9D
:10BA30000C2700200149086170470000982700206A
:10BA400010B53C4888B00024047004713A4801F0F5
:10BA5000CDFA00286CD13948FFF712FE00F09EF8AD
:10BA6000002865D1FFF76CF978B1684671DF08B13D
:10BA7000FEF750FB9DF801006946401C8DF801005F
:10BA8000002070DF08B1FEF745FB9DF808002CA1EF
:10BA900020F00F00401C20F0F00010308DF808005E
:10BAA000072202A87CDF08B1FEF734FB00940C20CB
:10BAB000ADF8000018200194ADF80200ADF8044084
:10BAC0004FF4C870ADF8060068467ADF08B1FEF79B
:10BAD00021FB08200094ADF800001B4801901B4892
:10BAE000029069461A48FEF725FE08B1FEF712FBE0
:10BAF0001C216846FDF787FD40F6CD40CDE90040AA
:10BB00004FF48040029003208DF80C001148ADF8EE
:10BB10000E408DF81040CDE905406846FEF72AFD3D
:10BB200008B1FEF7F7FA01F07DF9FEF71BFA0020E5
:10BB300008B010BD982700201DA90700C9B1070053
:10BB40004F54414D4F444500B1CA07002DCF070067
:10BB5000E432002029B0070000F062BD0E4910B5A4
:10BB60004A788C780023A24212D0521CD2B24A707A
:10BB7000022A00D14B70084A4B78183252F8232021
:10BB800002600869104420F07F400861012010BD68
:10BB90000360002010BD0000682700200748002136
:10BBA000074A017002F5907002600822C0E9012185
:10BBB000C16001614161816108467047C927002069
:10BBC00050330020F0B5194A0646916861B35569B3
:10BBD0001020691A01F00701D2F800700B46012409
:10BBE00001EBC10C07EB8C0CB44506D1956904FA46
:10BBF00001F675400020956104E0491C01F0070141
:10BC00008D42EDD1491C956901F0070104FA03F357
:10BC10001D420AD19368002B07D05B1E93605368C6
:10BC20005B1C53600B46F1E70420F0BD703400202C
:10BC3000064920230A7C0968521E02F0070202EB23
:10BC4000C20203EB8202885000207047703400204B
:10BC500070B5D0B1C9B10F4AD368C3B15B1ED36010
:10BC600093685B1C93605369156803EBC30405EB91
:10BC700084060660202000EB84005B1C28580860C6
:10BC800003F007005061002070BD0E2070BD04203D
:10BC900070BD00007034002010B5E9B100220A60C8
:10BCA000104A5368E3B1202818D85B1E5360D0684F
:10BCB000401CD0601069136800EBC00403EB8403E0
:10BCC0000B60012383409169401C194300F0070079
:10BCD00091611061002010BD0E2010BD0C2010BD20
:10BCE000042010BD70340020FEB50446087A820797
:10BCF0000ED000F00302C2F104030022154604E056
:10BD00004E683554401CC0B2521C9A42F8D3087297
:10BD10000120009048680290087A800801906846E7
:10BD2000FFF7CCFB00280BD0022100F0B3FC024649
:10BD300002212046FEF7C2FD002801D0FEF7EAF9F5
:10BD4000FEBD0000F8B51A4C207800282ED02069DE
:10BD500028B10026E06820B1002526B110E00126B8
:10BD6000F8E70125F9E7684652DF052803D020B13E
:10BD7000FEF7D0F904E0012602E021690098884727
:10BD800085B96088ADF800006946A06861DF0528C4
:10BD900003D020B1FEF7BEF904E0012502E0D4E9AA
:10BDA00002018847002EDED0002DD6D0F8BD00005D
:10BDB000FC27002070B54FF040200B4C0025C0F848
:10BDC0000851214601F096FA00280BD1A07EFF28E9
:10BDD00001D000F0BBFC65762571201D2168BDE80F
:10BDE0007040084770BD0000F82C002005494088CD
:10BDF0000A88904204D34988884201D801207047BC
:10BE00000020704730270020800701D000207047B5
:10BE10000120704730B51488E51C9D4201D90C20E3
:10BE200030BD02250D5513881C245B1C9BB213806A
:10BE3000CC5413885B1C9BB21380012807D00228C6
:10BE400007D0032807D0042807D0072030BD0020E2
:10BE500004E0012002E0CD5401E00320C854108822
:10BE6000401C1080002030BD2DE9F047DFF8ACA069
:10BE7000DAF80C009AF8004080469AF80460DAF884
:10BE80000890DAF810703AE009EBC4052A7833E03C
:10BE900002EB42016B68521C03EBC101AB78D2B2DA
:10BEA000934200D100220B78022B02D0032B23D126
:10BEB0001FE0D1F804C00346014603E0614503D00A
:10BEC0000B46C969C1B1F9E7B1B18B4205D1C0696F
:10BED00018B9134F0126BE600027D1F800C0C96908
:10BEE000D96149B10B6863440B6005E00174C06916
:10BEF00000E000210028F9D169789142C8D1641E80
:10BF0000E4B2C1D2CAE903078AF80460404502D00E
:10BF10000120BDE8F0870020FBE700006827002033
:10BF2000001001402DE9F04705462F4800268046C5
:10BF30000778D0F80C904BE0D8F8080000EBC70465
:10BF400040E002D02846ED691EE02078616800EBF1
:10BF50004002401CC0B201EBC2012070A2789042A6
:10BF600000D126700A784868012A2DD1027C5ABB7C
:10BF70008A684260CA6882600A69C26049698161F0
:10BF800098F8041001B146604268D8F81030DFF824
:10BF90005CC0D11A21F07F41614502D28268114410
:10BFA00006E0991A826821F07F418A4202D9511A2B
:10BFB000016000E006604660012186600174C66190
:10BFC00001F038F9002DBCD1207861788842BCD1CD
:10BFD0007F1EFFB2B0D2D8F80C10494502D0012024
:10BFE000BDE8F0870020FBE768270020FFFF7F0007
:10BFF00032480168B12936D05FF000044FF01020BC
:10C000004069B0F5F22F02D00020FEF783F84FF020
:10C0100080500069B0F5805F02D00020FEF77AF80A
:10C02000274B284A0A210020FEF754F908B1FEF7F1
:10C0300071F8FEF72DFEFEF7EBFDFEF793FEFEF71F
:10C0400027FDA0B1FEF733FD08B1FEF763F884F0D9
:10C050000100FEF773FC00F091FEFEF745FD60B1B4
:10C06000FEF758F809E0012400210160C6E784F0DA
:10C070000100FEF763FC00F081FEFEF7DFFD2043C8
:10C080004FF4405503D1A868FEF7BAFC48B900F058
:10C090004DF82046FEF7ACFCFEF73CFD08B1FEF77C
:10C0A00039F8A868FEF7ACFC28B1FEF7F1FC10B92E
:10C0B000A868FEF7C3FCFDF703FB00001C05004069
:10C0C000BDA207001028002070B5144682880E46D5
:10C0D00005462088111D0144921C994201D8FE2A70
:10C0E00001D90C2070BD521C32542088FF21401C05
:10C0F00080B2208031542088401C80B22080811979
:10C10000288801F01EF92188084480B22080AA887E
:10C1100042B1A96841B13044FDF75CFA2088A98892
:10C1200008442080002070BD072070BD10B5FDF7C9
:10C1300021FB00F081F8124900204870114A0121CA
:10C140001148FEF79DF808B1FDF7E4FF0E48002204
:10C150004FF400410068FEF705F908B1FDF7DAFF7A
:10C160000A48FFF767FC0A48FFF746FC094A0E2118
:10C17000152000F005FFBDE8104000F023BF0000CF
:10C180000C27002099C1070058D5070005BA070001
:10C19000A1B90700D1AD070010B5FEF7ADF9002831
:10C1A00013D10A48417800290FD1817800290CD099
:10C1B000017911B10179491E01710179002904D178
:10C1C0008170BDE81040FDF78DBA10BD0C2700202E
:10C1D0007CB5C0EB401040006421B0FBF1F4144D7D
:10C1E0000C210320CDE9000195E8070000232D1F55
:10C1F000FDF792FB00210A2010350B46CDE9000126
:10C2000095E80700FDF788FB00200A4A08E01118AE
:10C21000401C91F88132C0B243F07F0381F8813233
:10C22000A042F4D3BDE87C400020FDF73DBB0000F8
:10C230005CD50700682D00201CB50C210320CDE93A
:10C2400000010948002307C8FDF766FB0020FDF741
:10C250002BFB064CA07818B90120A070FDF766FAF8
:10C260000A2020711CBD00005CD507000C270020AF
:10C27000F8B50E46017814460546012901D16878C3
:10C2800030B12088821C9A422DD8012902D006E0C4
:10C290000720F8BD69780144891C994223D8181AEF
:10C2A000801E87B2ADF800702188B01C0844694632
:10C2B0007DDF0028EDD12878022805D1BDF80010D7
:10C2C000B94201D809210AE00821012805D168787E
:10C2D000B84202D8ADF8000001E0ADF80070BDF83A
:10C2E0000000FE2801D90C20F8BD2288401CB05463
:10C2F0002088401C80B2208031542088401C20803F
:10C30000BDF80010084420800020F8BD31B540F28F
:10C31000E73404E0401E00902046FDF7B7F800988F
:10C320000028F7D138BD4907090E002806DA00F0C9
:10C330000F0202F1E02282F8141D03E000F1E02276
:10C3400082F8001400F01F02012191404009800092
:10C3500000F1E020C0F88012C0F800117047000022
:10C36000F8B5B0F1402F01D00720F8BD00260C46EB
:10C370008DF800606846FEF75DF8094D287928B110
:10C380009DF80000FEF77AF81120F8BD0120287111
:10C390009DF80000FEF772F830462C60F8BD0000F2
:10C3A00048270020B0F1402F02D102490020087137
:10C3B00070470000482700202DE9FC5F06464079C1
:10C3C000DFF824B10C460BEB40171546397E11B14E
:10C3D0000820BDE8FC9F454951F820103068FFF760
:10C3E000BFFF08B11120F4E724B940497079091D55
:10C3F00001EB00143D60207B01250128DFF8F0A04F
:10C40000207804D805FA00F0CAF8000001E000F036
:10C410009DF92178A946890001F1A041C1F8005792
:10C4200065784FF0FF38FF2D07D009FA05F0CAF8FC
:10C430000000284600F062F900E04546A0784FF081
:10C44000000AFF2809D0002280465346CDF800A0FC
:10C450001146CDF804A000F037F9E078FF2804D0A9
:10C4600000F074F9E07800F049F97179E0780BEBAD
:10C470004111887630682378C0F80835C0F80C552B
:10C48000C0F81085A168C0F82415237B617B01B139
:10C490000121012B04D0022B05D0032B08D105E08C
:10C4A00041F0020104E041F0040101E041F0060125
:10C4B000C0F85415737961790BEB4312D176396862
:10C4C00011B10421C0F804134D46C0F80095386836
:10C4D00020B1217996F90400FFF725FF87F819A00C
:10C4E0003D76002075E70000F82C002040D50700BD
:10C4F0000C0500501FB5069C00918DF80420029396
:10C500008DF80C400022694600F026F804B010BDFA
:10C5100070B541790F4A02EB4114216859B190F985
:10C520000410012201F01F039A404909890001F11A
:10C53000E021C1F88021016822681AB14FF0FF3272
:10C54000C1F808230025C1F800550068FFF72AFF4D
:10C55000257670BDF82C00202DE9F04113460C46DD
:10C560004179154A02EB41114A7E12B11120BDE812
:10C57000F0810A6801251AB113F0140F00D14D762D
:10C5800094E8C41001F1080888E8C4104A7F22F03A
:10C5900003024A778A7EFF2A02D09540074A156037
:10C5A0001BB1002048760620E1E70068224600F033
:10C5B0007BFD0020DBE70000F82C00200C0500507C
:10C5C00038B5044600208DF800006846FDF732FFBC
:10C5D0000A48816808290AD221704A1C82600848EA
:10C5E000026801238B401A430260002400E0042407
:10C5F0009DF80000FDF742FF204638BDD0270020FF
:10C600000805014004490120C1F8040308600349FA
:10C61000022008707047000000000140D027002071
:10C6200010B507490020074C8968074B05E0020652
:10C6300003EB9252C2F80046401C8842F7D310BD6B
:10C64000D02700203546526E000001400E4A10B53A
:10C650005160117809B1082010BD0121117000B995
:10C660000A480B4A0178116041684FF47A72C90395
:10C67000B1FBF2F1064A083A1160017A1020FFF787
:10C6800052FE002010BD0000D0270020D8D60700A1
:10C690000C05014008280BD003DC38B106280FD167
:10C6A00008E00B280AD00C280AD105E001207047C9
:10C6B000022070470320704704207047042901D0EE
:10C6C000062070470520704730B541EA4201DDE998
:10C6D000034541EA8301800041EA042100F1A040C2
:10C6E00041EA0541C0F8001730BD0022800000F18A
:10C6F000A04042EA8101C0F8001770471CB5002134
:10C7000000910B46012201911146FFF7DDFF1CBD90
:10C710000321800000F1A040C0F8001770470321FA
:10C72000800000F1A040C0F800177047012181404F
:10C7300001480160704700000C0500500121814054
:10C7400001480160704700000C0500500121814044
:10C750000148016070470000080500500121814038
:10C760000148016070470000080500500121814028
:10C770000148016070470000080500502DE9F041B4
:10C780000F4E0746002400BF06EB841005463A46CC
:10C790004021FCF731FF04F1B000C0B2FDF7A0F872
:10C7A0000020FDF79DF81020FDF79AF8284640215B
:10C7B000FDF77CF8641CE4B2102CE5D3BDE8F081F1
:10C7C000682D00202DE9F0410546002219491A483C
:10C7D000FFF7F2FD1620FFF7A9FF1320FFF798FFE0
:10C7E00000241020154F00EB151605F00F0800BFB0
:10C7F00004F1B000C0B2FDF773F84046FDF770F8E1
:10C800003046FDF76DF807EB841540212846FDF70B
:10C810004DF828464021FCF7F6FE641CE4B2102CCB
:10C82000E6D31620FFF79AFFBDE8F0410248FFF774
:10C830006FBE0000182700207CD60700682D00205E
:10C8400030B55A4C02880021E588A7B0192A0FD0CC
:10C8500023DC112A42D00DDC022A78D0102A07D11D
:10C860008088E080A1706169002901D0012088479B
:10C8700027B030BD4E49132A01F1180447D0142ABD
:10C88000F6D1028A4B8D00259A4200D1254600231D
:10C89000CA1D8088294686DF1BE0512A69D00EDC3C
:10C8A0001A2A7DD01B2AE3D1007A0028E0D1A1709A
:10C8B000E068401EE0604BD0FDF754FBD8E7522AF9
:10C8C00071D0552AD4D180790028D1D1132128469E
:10C8D00076DF0028CCD0FDF71DFCC9E78020ADF83D
:10C8E00094003220E060012325AA05A92846AADF8A
:10C8F00008B1FDF70FFC616909B100208847207875
:10C9000008B9FDF72FFB4FF6FF70E080B0E728482D
:10C91000C91D483850F8482F09928288ADF8282060
:10C9200080798DF82A00102205A8FCF753FE1C22FE
:10C93000214614A8FCF74EFE05A810901B4A14A827
:10C940002C320F900BAB852128467FDFC1E70CE02E
:10C950001422184905A8FCF73DFE099805AC009083
:10C9600094E80F00FEF7E2F882E70021284667DF2F
:10C97000AFE781790029A1D0807B042803D0062865
:10C9800001D005289AD102290BD001208DF804008E
:10C990004FF4C170ADF8080001A92846A8DF98E758
:10C9A00001E00220F2E700F04DFA92E7982700201C
:10C9B00014330020C4D60700F0B58BB001274FF028
:10C9C000020E05468DF80CE08DF812700889ADF85E
:10C9D00014004889ADF8160001F10C0000260896F5
:10C9E0000690ADF820E007A8ADF8226009900C464B
:10C9F000A98A288808AAA5DF18B1E96AC9B18847B9
:10CA000017E09DF81C0010F0010F12D0ADF8106077
:10CA1000288803A9A8DF002812D1217B04F10D008A
:10CA2000092943D2DFE801F0420E1D2326282A40BF
:10CA30002C0040F2FD10ADF81000288803A9A8DFF3
:10CA40000BB0F0BD8DF800600DE006221DE000BFC8
:10CA50008DF808700190AA6A694628469047002020
:10CA6000EEE78DF800706289022AF1D2EDE78DF8C9
:10CA700000E0F0E7032012E0042010E005200EE0C3
:10CA80006089032805D2032208212846FDF716FFF6
:10CA9000D6E7B4F80D00ADF8040018B106208DF803
:10CAA0000000D8E70720FAE70920F8E70322ECE7BF
:10CAB00070B504460B780120314A0A2B16D2DFE804
:10CAC00003F01F243A050D1651563D5AFEF78AFC15
:10CAD0000421FFF7DFFD0246042123E0FEF740FFBB
:10CAE00008B1FDF717FBFEF763FC28B970BDFEF730
:10CAF00037FF08B1FDF70EFBBDE87040FEF7C6BD7D
:10CB0000107148680078507170BD0220107148683B
:10CB100000780128F8D1FEF7B9FC0221FFF7BAFD31
:10CB2000024602212046FDF7C9FE0028ECD0BDE8F0
:10CB30007040FDF7EFBA0320107170BD12792046E6
:10CB4000012A07D0022A09D0032AF6D1BDE8704095
:10CB5000FDF75CBABDE8704000F0DEBABDE8704099
:10CB6000FFF7C2B8507088881081508170BD0020D6
:10CB70005070108170BD2046D169FDF79FFDD4E74C
:10CB80009827002006480378012B03D1012901D101
:10CB900002210170100001D0FDF7BCBA70470000FF
:10CBA0008827002070B5124C1E4615466078012972
:10CBB00002D0032914D107E0052811D163697BB1A4
:10CBC0003246294604200AE0022809D10948406873
:10CBD000804703206070636913B132462946984745
:10CBE000280003D0BDE87040FDF794BA70BD000086
:10CBF000DC270020FC34002008B50B46002201464B
:10CC000003200092FEF74AF908BD000070B50D4EF2
:10CC100000240D48746025460470447084702846D2
:10CC2000FEF72CF96D1C0A2DF9D30749346000205A
:10CC3000F431746041F82040401C0328FAD30020EE
:10CC400070BD000050270020A4310020074B1A6857
:10CC5000032A08D00A600649006841F82200521CE5
:10CC600000201A6070470420704700005027002001
:10CC700098320020F8B507461D4616460C46084671
:10CC8000FFF7C2F858B16019FFF7BEF838B1334664
:10CC90002246394601200095FEF700F9F8BD102024
:10CCA000F8BD000070B5244C06460022A07801288B
:10CCB00041D100232146A3700D78022E05EB4500DB
:10CCC00001EBC00103D0032E35D10D202EE01B480F
:10CCD0004668761C46608968B1EB063F15D843600C
:10CCE0006078401E6070681CC0B220700A2801D3B2
:10CCF0000A38207005EB450004EBC0011046091D01
:10CD0000FDF714FA2846FEF7B9F86078002812D02B
:10CD1000A07800280FD1FEF77DF800280BD011284D
:10CD200009D0217801EB410104EBC101BDE870405D
:10CD3000091DFDF7FBB970BDA4310020502700206C
:10CD400070B5012670044FF0E0210025C1F8800184
:10CD5000084C4010C4F84803C4F8080366602F204C
:10CD6000FCF7D0FBA660044C2F202561FCF7CAFB22
:10CD7000E57070BD001001406827002010B5064A1C
:10CD800014210820FDF766FA002803D0BDE8104002
:10CD9000FDF7C0B910BD0000882B002010B501219F
:10CDA000202803DA1D4A8140114004E0402803DABC
:10CDB000A0F12002914041B1002809DA00F00F01F2
:10CDC00001F1E02191F8141D06E042F2010010BDCE
:10CDD00000F1E02191F800144909082914D299B111
:10CDE000012911D004290FD005290DD00C4A9468CF
:10CDF00000F01F0301219940400944B152F820304E
:10CE00000B4342F8203007E042F2020010BD8000E0
:10CE100000F1E020C0F80011002010BDFC06FFBCAE
:10CE2000083500200648017821F07F01303121F0DB
:10CE3000800101700721417010218170704700004E
:10CE4000C427002070B5154C4FF6FF75E088A84246
:10CE500001D1082070BDE178D1B101230822104929
:10CE6000A9DF0028F6D1022300221146E088A9DFBD
:10CE70000028EFD12A460C21E088A7DFA0F5405119
:10CE8000023903D0082801D0891EE3D1002070BDEB
:10CE900000231A461946A9DF70BD0000982700201C
:10CEA000483300202DE9F0410746806A1446884641
:10CEB000C8B3002531E000BFB96A05EB450001EBBE
:10CEC0008006B088801CFE2802D90C20BDE8F081C5
:10CED0002288401C08F8020020881622401C80B2DC
:10CEE000208008F800202088401C80B2208000EBC1
:10CEF0000801308800F025FA2188084480B220809B
:10CF0000B28842B1B16871B14044FCF763FB20883C
:10CF1000B188084420806D1CEDB297F82C00A8421F
:10CF2000CAD80020D2E7FFE70720CFE7FDF7F2B825
:10CF3000114910B5487B114A1368C34013F0010F23
:10CF400004D1FDF7D9FA08B100200FE0487B116841
:10CF5000C14011F0010F04D0FDF7CEFA08B1012055
:10CF600004E0FDF7C9FA002804D10220BDE8104012
:10CF7000FDF79EBA10BD0000382D002010050050AE
:10CF800070B50D460646144600212846FFF7ADFB56
:10CF900000213046FFF7A9FB064806734573064A91
:10CFA00001210648FDF76CF908B1FDF7B3F8044814
:10CFB000446070BD382D002031CF070054D50700E4
:10CFC0000427002010B5084C2068FDF70BFA00225A
:10CFD0004FF400412068FDF7C5F9002803D0BDE8F3
:10CFE0001040FDF797B810BD54D5070018B103499C
:10CFF000C860002070470E2070470000FC2700200A
:10D000001CB5034901910091694660DF1CBD000019
:10D010000027002070B50E46054614461421104620
:10D02000FCF7F1FA01202080002121612173267292
:10D03000657205B1A072002070BD10B511B100205D
:10D04000FDF768F8BDE81040FEF77CBE0021024AFB
:10D050000846FDF79FB800003BD00700FDF758B821
:10D0600030B409B18C0702D0072030BC7047074CA0
:10D070000125A16062800649636010DF0028F4D1B9
:10D08000257030BC1620FFF789BE0000FC27002069
:10D090005DD0070018B103490861002070470E20D9
:10D0A00070470000FC27002070B5002604460E776C
:10D0B00004200D46C4F80803C4F80861107910B1C3
:10D0C0001068007800E0E87EC4F81C05107901289B
:10D0D00002D91068407803E0107B012802D9E87E6D
:10D0E000C4F81C05286818B10420C4F8040370BDF6
:10D0F000D4F808010028FBD0C4F80861294620466E
:10D1000000F0F8F80028F3D1A87EFF28EFD0BDE8A2
:10D110007040FFF71BBB000010B588B0044600202C
:10D120001C4A00900190029003901B4B50798DF89F
:10D13000000018689B6804906846CDE90503087AEA
:10D140000C2805D003221DE0FCF7E4FF08B010BD59
:10D150004868C378016863F31F610191C37941682E
:10D1600063F31F610291C17A806861F31F600390CD
:10D17000906204A8FEF774FB0028E7D00121FFF7B6
:10D1800089FA024601212046FDF798FB0028DBD1F1
:10D19000DCE7000098270020B8D60700FFF782BD23
:10D1A0000048704700FC00202DE9F84F204C002576
:10D1B0006846D4E903B6FEF7D1FC8046FEF754FE7C
:10D1C0000746A946B8F1000F25D00023009ACC46A7
:10D1D000E06819E007680146974202D9BA1A02606E
:10D1E00014E0C1F800C0D1F80C80D21BC8693B44E0
:10D1F0008A46B8F1000F07D0F71827F07F47C1E93A
:10D200000178CAF81C500D460028E3D1E06028469A
:10D21000FEF788FE04E02846FEF784FE00B917B149
:10D220005846FDF767FE84F80490BDE8F88F0000CB
:10D23000682700200D4B10B5D96831B102680C6821
:10D24000A24204D8A21A0A60C161D86010BD0B4680
:10D2500003E00B46C969121B21B10C689442F8D354
:10D26000A41A0C600260C161D86110BD682700205B
:10D270002DE9F0411D4DEC68002C35D01C480027ED
:10D2800000682969B846401A20F07F462068B042FD
:10D2900015D82246361A0744E469107C68B182F832
:10D2A00010806B6933B1D2E90501984728B1FCF7CA
:10D2B00031FF02E0D2E905108847002CE6D16978F9
:10D2C000A878814206D1401CC0B2A870022801D1C2
:10D2D00085F802800548A978183040F82170BDE82B
:10D2E000F0411420FCF7D0B9BDE8F0816827002098
:10D2F0000415014038B5D0F818258DF800200A7FB4
:10D300000B7D9A4203D29DF800300C69A3540A7F2A
:10D31000521CD3B20B770C7B5A1C944202D98968F9
:10D32000895C03E00D7D954203D9C97EC0F81C15C8
:10D3300003E0A34201D3AB4201D2012038BD00205B
:10D3400038BD0870000A4870022070470870020A51
:10D350004A70020C8A70000EC870042070470000EA
:10D3600038B515494888A0F57F42FF3A23D04A785E
:10D37000124C521CD2B24A70237B93420AD3091D2D
:10D3800075DF002817D0A169002914D001B0BDE8CD
:10D390003040084700254D70217C29B13B2176DFC4
:10D3A00010B1A16901B188476169002903D08DF8E6
:10D3B00000506846884738BD2C270020883100205F
:10D3C000EFF30580C005C00D13D0103840B200281F
:10D3D00006DA00F00F0000F1E02090F8140D03E0F1
:10D3E00000F1E02090F800044009022803D006284C
:10D3F00003D0022070470020704701207047427818
:10D400008378521CD2B2934200D100220378934217
:10D4100001D1002070470A704168407800EB40005D
:10D4200001EBC00070472DE9FC411646DDE90854C8
:10D43000CDE900541F468046022200F00CF8002877
:10D4400007D1CDE900543B4610223146404600F05A
:10D4500002F8BDE8FC812DE9FC5F0026DDE90C4BFC
:10D46000994692468E4680462788354630E0D8F861
:10D470000400002200EB850069460068019001A8C5
:10D4800065DF002830D19DF8000050451FD10EB156
:10D49000002100E00221228808441118594522D8B1
:10D4A00046B9521C90B2208009F800E02088401C48
:10D4B00020800126218801A801EB0902694665DF69
:10D4C000002811D120889DF80010084420806D1C90
:10D4D000B8F80000A842CADC56B12088C01B401E24
:10D4E00080B2FF2802D90C20BDE8FC9F09F8070094
:10D4F0000020F9E710B5074C48DF08B1FCF70AFE39
:10D50000FCF798FE2078022803D0032801D00428D5
:10D51000F2D110BD882700207047000001000007ED
:10D5200002000000000000000000000000000000F9
:10D53000D82C002001000000204E00000200000056
:10D54000B5BD07001E1F1BFF06FF000000000040C6
:10D5500000000000182D0020482D002074D5070081
:10D5600028002828280000003CD60700400008407A
:10D5700008000000F8FC3E1F1F1F1F1F1F1F1F1F5A
:10D580001F1F1E1C18181818181818181818181803
:10D5900018181818181818181838F0C0FFFF0000CD
:10D5A000000000000000000080C0E0F0F8FCFEFF7A
:10D5B000FEFCF8F0E0C08000000000000000000069
:10D5C0000000FFFFFFFF000000000000000000015E
:10D5D000010101017F7F7F7F7F7F7F0101010101C9
:10D5E00000000000000000000000FFFF7FFFC0807F
:10D5F0008080808080808080808080808585858517
:10D60000858585808080808080808080808080800B
:10D6100080C0FF7F00000101010101010101010142
:10D6200001010101010101010101010101010101EA
:10D630000101010101010101010100007F4141419E
:10D6400041414141414141414141414141414141CA
:10D6500041414141414141414141414141414141BA
:10D6600041414141414141414141414141414141AA
:10D6700041414141414141414141417F00400040E0
:10D68000040000006831002023D1BCEA5F78231534
:10D69000DEEF12120000000085CB07000000000042
:10D6A0000000000002000000000000000000000078
:10D6B0000000000000000000030000000000000067
:10D6C0000000000005000000000000000000000055
:10D6D000000000000000000001000000204E0000DB
:10D6E000020000008C340020040000000000000054
:10D6F000000000000000000000000000A5CB0700B3
:10D70000000000000000000028D7070000270020CC
:10D7100010010000709C070038D807001028002076
:10D72000081D0000809C07000000FFFF00FF0000B4
:10D7300000000000000000000A00000000000000DF
:10D740001E1F1BFF06FF000000000040000000003D
:10D750000090D00300000000000000000000000066
:10D7600000000000000000000000000000000000B9
:10D7700000000000000000000000000000000000A9
:10D780000000000000000000000000000000000099
:10D790000000000000000000000000000000000089
:10D7A0000000000000000000000000000000000079
:10D7B0000000000000000000000000000000000069
:10D7C000000000000000FFFF000000003200000029
:10D7D0000000000000000000FF000000000000004A
:10D7E0000000000000000000000000000000000039
:10D7F0000000000000000000000000000000000029
:10D800000000000000000000000000000000000018
:10D810000000000000000000000000000000000008
:10D8200000000000000000000000000000000000F8
:10D830000000000000000000FFFFFFFFFFFFFFFFF0
:10D84000FFFFFFFFFFFFFFFFFFFFFFFFFFFFFFFFE8
:10D85000FFFFFFFFFFFFFFFFFFFFFFFFFFFFFFFFD8
:10D86000FFFFFFFFFFFFFFFFFFFFFFFFFFFFFFFFC8
:10D87000FFFFFFFFFFFFFFFFFFFFFFFFFFFFFFFFB8
:00000001FF
